:020000041FFFDC
:1008000000000000E9D5FF1FCC04002000050020F7
:100810001C1D00200000000000000000000000007F
:1008200000000000000000000000000000000000C8
:1008300000000000000000000000000000000000B8
:1008400000000000000000000000000000000000A8
:100850000000000000000000000000000000000098
:100860000000000000000000000000000000000088
:100870000000000000000000000000000000000078
:100880000000000000000000000000000000000068
:100890000000000000000000000000000000000058
:1008A0000000000000000000000000000000000048
:1008B0000000000000000000000000000000000038
:1008C0000000000000000000000000000000000028
:1008D0000000000000000000000000000000000018
:1008E0000000000000000000000000000000000008
:1008F00000000000000000000000000000000000F8
:1009000000000000000000000000000000000000E7
:1009100000000000000000000000000000000000D7
:1009200000000000000000000000000000000000C7
:1009300000000000000000000000000000000000B7
:1009400000000000000000000000000000000000A7
:100950000000000000000000000000000000000097
:100960000000000000000000000000000000000087
:100970000000000000000000000000000000000077
:100980000000000000000000000000000000000067
:1009900029BBFF1FBDBBFF1F45E7FF1F0000000075
:1009A0000000000000000000000000000000000047
:1009B0000000000000000000000000000000000037
:1009C0000000000000000000000000000000000027
:1009D0000000000000000000000000000000000017
:1009E0000000000000000000000000000000000007
:1009F00000000000000000000000000000000000F7
:100A000000000000000000000000000000000000E6
:100A100000000000000000000000000000000000D6
:100A200000000000000000000000000000000000C6
:100A300000000000000000000000000000000000B6
:100A400000000000000000000000000000000000A6
:100A50000000000000000000000000000000000096
:100A60000000000000000000000000000000000086
:100A70000000000000000000000000000000000076
:100A80000000000000000000000000000000000066
:100A90000000000000000000000000000000000056
:100AA0000000000000000000000000000000000046
:100AB0000000000000000000000000000000000036
:100AC0000000000000000000000000000000000026
:100AD0000000000000000000000000000000000016
:100AE0000000000000000000000000000000000006
:100AF00000000000000000000000000000000000F6
:100B000000000000000000000000000000000000E5
:100B100000000000000000000000000000000000D5
:100B200000000000000000000000000000000000C5
:100B300000000000000000000000000000000000B5
:100B400000000000000000000000000000000000A5
:100B50000000000000000000000000000000000095
:100B60000000000000000000000000000000000085
:100B700035C2FF1F00000000000000000000000060
:100B80000000000000000000000000000000000065
:100B90000000000000000000000000000000000055
:100BA000000000000000000000000000B9AEFF1FC0
:100BB000000000000000000049AEFF1F81AEFF1FD3
:100BC00031AEFF1F00000000000000000000000028
:100BD0000000000000000000000000000000000015
:100BE0000000000000000000000000000000000005
:100BF0000000000065ADFF1F0000000000000000C5
:0C0C000001FF01FF01FF01FF41000000A7
:020000041FFFDC
:10480000105E0020D548FF1FDD48FF1FDF48FF1F57
:104810000000000000000000000000000000000098
:10482000000000000000000000000000E148FF1F41
:104830000000000000000000E348FF1FE548FF1FE4
:104840000000000000000000000000000000000068
:104850000000000000000000000000000000000058
:104860000000000000000000000000000000000048
:104870000000000000000000000000000000000038
:104880000000000000000000000000000000000028
:104890000000000000000000000000000000000018
:1048A0000000000000000000000000000000000008
:1048B00000000000000000000000000000000000F8
:1048C0000348854600F086FC00480047D9D4FF1F06
:1048D000105E00200448804704480047FEE7FEE7DA
:1048E000FEE7FEE7FEE7FEE78175FF1FC148FF1FF9
:1048F00003460B439B0703D009E008C9121F08C0F9
:10490000042AFAD203E00B780370401C491C521EA3
:10491000F9D27047D2B201E00270401C491EFBD2AE
:1049200070470022F6E710B513460A4604461946BA
:10493000FFF7F0FF204610BD30B5044600200346C7
:1049400000E05B1C934203D2E05CCD5C401BF8D0DE
:1049500030BD0321001D401E037812021A43491E78
:10496000F9D510467047F8B502464A40D40F4200C8
:104970004B0052085B089A4202D202460846114692
:104980004A0023D0C30D4A00DDB2120EAD1A202D0D
:1049900035DA49020126490AF6058A19002C00D0A9
:1049A000524220214F1B1146B9402A411018C20D16
:1049B0009A4221D0002C17D0012D08DCDA05801A8C
:1049C000D20F8019D207DBB200F06CFBF8BDDA051C
:1049D000801A012340001B06C01880185A42801814
:1049E000CA0F1043490007E04908C2071143DA051E
:1049F000801A80194008801800F04CFBF8BD610057
:104A00000122511A001BF7E70122D2075140AAE701
:104A10000122D2075040A6E7024670B54A40D30FA4
:104A2000DB0740002DD04A002AD0010E140E0002F0
:104A300012020919400A520A8418E5010446544337
:104A4000000A120A2E045043A4194219200CC5432F
:104A5000AA18120C0125AD03521C521912047F39F9
:104A6000240400D0521C104301D44000491EC2B29D
:104A70000C06C0092018401C4008802A02D003E020
:104A8000002070BD40084000002900DA00201843D3
:104A900070BD70B502464A40D50F40004A00ED0790
:104AA00040085208002814D0002A12D0C40DD30D9B
:104AB00041020120C0055202490A520AE41A0918AB
:104AC00012187D34914201D3641C00E04900002C8F
:104AD00001DA002070BD0023914201D3891A0343FB
:104AE000400849000028F7D100290AD0914202D19C
:104AF0000121C90705E0914201D2012101E0012114
:104B0000C943E005C018401900F0C4FA70BD420066
:104B100005D04200120E52428A4201DB002070474B
:104B2000C905081870470000F0B507460846584008
:104B300087B0C00F049048000E465900400849084D
:104B4000BC1A884105D2384631461E4617460B46E8
:104B500002465800400810434CD0300D03904005E9
:104B60005900400D490D0590401A0290402872DA14
:104B700018030121000B09050843019004980092D5
:104B8000002805D0019952420020884100920190EE
:104B9000029840210A1A0199009800F047FA054648
:104BA0000C466B4607CB00F062FAC0197141039ABC
:104BB0000E0D0023D71756401A467A40164344D0AC
:104BC000049A002A2DD0029A012A039A15DC1205B4
:104BD000C01A914101263605001C7141D20F059E75
:104BE000D2070093019202962A46234600F0A0FACB
:104BF00007B0F0BD38463146FAE71605224A0F469F
:104C0000B218C01AB74101210905001C4F41001814
:104C10007F41114618187941E20F10436D19644124
:104C200013E0E2076D0815436408C2071443039AB2
:104C300001261205C01A91413605001C7141CE07AC
:104C4000400830434908C01851412A46234600F025
:104C500062FACDE7FFE7049801224000C117121A5B
:104C600000238B4104983146C417381AA141EEE75E
:104C700030B40124E407634030BC55E730B401246C
:104C8000E407614030BC4FE70000E0FFF0B51FB41F
:104C900088B00B990998002448400999C00F490031
:104CA00049080991C0070B990090490049080B91E8
:104CB00009990898A64608431CD00B990A980843FE
:104CC00018D0099801244000420D4800410D099870
:104CD00024050003000B204309900B980003000BF0
:104CE00020430B9050181C49401800220190144694
:104CF000104605E0002001460DB0F0BD032801DAA2
:104D0000034600E003239C46C11A0AAE0AE05F0096
:104D100008ADED5B4F00F75B7D430027AA187C418F
:104D2000491C5B1E6145F2DD410004AB5A5221046F
:104D3000120C0A43240C401C0828DFDB0198029067
:104D40000099704601910090059B049A0799069876
:104D500000F0EEF9D0E700000DFCFFFFF0B50C46C7
:104D60005C4085B0E40FE40703944C00002664081F
:104D700059009446490802460296224321D06246D1
:104D80000A431ED06200570D4A000E032303550D3F
:104D9000012402462C492405781B1B0B360B4018B6
:104DA00023432643614600901C46501AB44103D366
:104DB0000098401C009002E0921800985B41002887
:104DC00003DA0020014605B0F0BD002001210905ED
:104DD0000746864611E064461D46141BB54106D3BE
:104DE0006546521BB341744607430C43A646CD07A4
:104DF00040084908284392185B4105460D43EAD113
:104E00001046184313D0604619465040714008437D
:104E100006D06046101AB34106D20122002306E0F4
:104E200000220123DB0702E00122D2435310009845
:104E300074460105381C6141029C039D00196941BB
:104E400000F069F9BFE70000FD03000070B54B00FA
:104E50005B0803430BD04B005C0D002633466542D4
:104E6000B341D417AD1AA34102DB0020014670BD47
:104E700012053018514170BDC217C10F504010B516
:104E80004018CA079623002100F00CF910BD10B598
:104E900000229623114600F005F910BD0EB5C21789
:104EA000C10F5040CA0740180021054B02930192E0
:104EB00000910A460B4600F03BF903B000BD00002C
:104EC000330400000EB505490291002100910A4605
:104ED0000B46019100F02CF903B000BD3304000033
:104EE000410040020122400AD205090E80187F29A4
:104EF00001DA00207047962903DC9622511AC84037
:104F000070479639884070474A0009030123090B0E
:104F10001B051943094B10B5520D9A4201DA0020C6
:104F200010BD064B34339A4203DC9A1A00F08EF817
:104F300010BD03495118884010BD0000FF03000058
:104F4000CDFBFFFFC20FD207400040080BD0C10DC0
:104F50000723DB01C91840020905400A1143C208B2
:104F6000400711437047002001467047CB0FDB0715
:104F7000490010B5490802460A4307D00A0D072424
:104F80000903E401090B121B002A01DC002010BDFB
:104F9000C900440F0C43C100E018D205801800F08E
:104FA00079F810BD0122D207002800DB101A002971
:104FB00000DB511A814270470122D207002800DB32
:104FC000101A002900DB511A88427047F0B51FB44F
:104FD0000646002082B005464024019100901BE067
:104FE000019922460F46304600F030F8049A059B9E
:104FF000801A994110D310461946224600F016F83F
:10500000361A8F410197224601200021009F00F0AF
:105010000DF838184D4100902046641E0028DFDC52
:10502000019B00982946324607B0F0BD10B5202AF2
:1050300004DB0146203A9140002010BD914020231E
:105040009C1A0346E3401943904010BD10B5202A36
:1050500004DB0846203AD040002110BD0B46D34067
:10506000D0402024A21A91400843194610BD10B523
:10507000202A06DBCB170846203A1041C1170B4304
:1050800006E00B461341D0402024A21A9140084369
:10509000194610BD002904DA401C490001D140081E
:1050A0004000704770B40024050C05D110240004A2
:1050B00002D1002921D01124050E01D100020834AB
:1050C000050F01D10001241D850F01D18000A41C12
:1050D000002801DB4000641C002908D020252E1B7D
:1050E0000D46F540A14000D00121294308430106A7
:1050F0001B1B000ADB1D02D5002070BC7047DB05BE
:10510000181880180029F8DA401C4900F5D170BC45
:1051100040084000704710B5002B08DA0024401CFE
:10512000614192185B411A4301D14008400010BD13
:10513000F0B51FB482B005460C0003D0084602F05B
:10514000C5FA02E002F0C2FA203002460090214681
:105150002846FFF76BFF049B059A04460F46184349
:105160001143084314D0184610431BD00098402127
:105170000A1A18460599FFF769FF05460E46009A78
:1051800005990498FFF752FF084305D0012004E079
:105190002046394607B0F0BD0020C11705430E4335
:1051A0002C43374300990E986305401A7905E40AA9
:1051B00000220C43FD0A0A3002D500200146E9E72F
:1051C0000105101969410C9C0D9D00196941FFF7FB
:1051D000A2FFDFE7064C0125064E05E0E36807CC99
:1051E0002B430C3C98471034B442F7D3FFF76CFBC9
:1051F000CC1C00201C1D002070B58C180578401CAC
:105200006B075B0F01D10378401C2A1106D102788D
:10521000401C03E006780E70401C491C5B1EF9D14F
:105220002B0705D40023521E0DD40B70491CFAE73E
:105230000378401CCB1A921C03E01D780D70491CAA
:105240005B1C521EF9D5A142D8D3002070BD0000CE
:1052500003B40148019001BD6902000003B4014894
:10526000019001BD7181000003B40148019001BDAE
:10527000B142010003B40148019001BDD5420100D3
:1052800003B40148019001BD593A010003B401483B
:10529000019001BDED3C010003B40148019001BD46
:1052A0001910000003B40148019001BDC93A010082
:1052B00003B40148019001BD5518000003B4014832
:1052C000019001BD8117000003B40148019001BDA8
:1052D000C13C010003B40148019001BDA53C01009F
:1052E00003B40148019001BD3917000003B401481F
:1052F000019001BD3914000003B40148019001BDC3
:105300001117000003B40148019001BDF13E0100F6
:1053100003B40148019001BD1B3D010003B40148E5
:10532000019001BD7114000003B40148019001BD5A
:10533000C131000003B40148019001BDC912000051
:1053400003B40148019001BD3D42010003B401488E
:10535000019001BD5D19000003B40148019001BD39
:105360003518000003B40148019001BDC1180000C8
:1053700003B40148019001BD3515000003B4014894
:10538000019001BD4117000003B40148019001BD27
:10539000E915000003B40148019001BD897B0000BC
:1053A00003B40148019001BDD520000003B40148B9
:1053B000019001BDA5E5000003B40148019001BDC5
:1053C000C91F000003B40148019001BDB51E0000D3
:1053D00003B40148019001BD3D1C000003B4014825
:1053E000019001BD0D1D000003B40148019001BDF5
:1053F0008306000003B40148019001BD0143010090
:1054000003B40148019001BDE120000003B401484C
:10541000019001BDED3A010003B40148019001BDC6
:10542000F53C010003B40148019001BD5D3F01005E
:1054300003B40148019001BDDD21000003B401481F
:10544000019001BD5171000003B40148019001BDFC
:105450009D19010003B40148019001BD39210100EB
:1054600003B40148019001BD8D44010003B401481B
:10547000019001BD5590000003B40148019001BDA9
:105480007D3A010003B40148019001BD913F010044
:1054900003B40148019001BDA942010003B40148D1
:1054A000019001BD7942010003B40148019001BDA2
:1054B000D136000003B40148019001BD01E60000AF
:1054C00003B40148019001BDBD07000003B40148C9
:1054D000019001BD891C000003B40148019001BD89
:1054E000E907000003B40148019001BD6D07000009
:1054F00003B40148019001BDFD0E000003B4014852
:10550000019001BD2D0E000003B40148019001BDC2
:105510003D07000003B40148019001BD211A0000BD
:1055200003B40148019001BD050E000003B4014819
:10553000019001BD8922000003B40148019001BD22
:10554000610E000003B40148019001BD9D0E0000F2
:1055500003B40148019001BDD50E000003B4014819
:10556000019001BD610F000003B40148019001BD2D
:105570009502000003B40148019001BD35430100CC
:1055800003B40148019001BDE997000003B401484C
:10559000019001BD3D98000003B40148019001BD98
:1055A000E58D000003B40148019001BD4977010079
:1055B00003B40148019001BDE91D010003B4014895
:1055C000019001BD1120010003B40148019001BD0B
:1055D0004920010003B40148019001BDF504010018
:1055E00003B40148019001BD4112010003B4014818
:1055F000019001BDFD0A010003B40148019001BD05
:10560000D90E010003B40148019001BDCD1C010079
:1056100003B40148019001BD4956010003B401489B
:10562000019001BD8D3C010003B40148019001BD12
:10563000E55B000003B40148019001BDE1290000D1
:1056400003B40148019001BD9937000003B401483B
:10565000019001BD5114000003B40148019001BD47
:10566000091F000003B40148019001BDA5790000A5
:1056700003B40148019001BD4103000003B4014897
:10568000019001BDF161000030B50023094D0CE02F
:105690000C785B1C24092C5D04700C78DBB22407A9
:1056A000240F2C5D4470801C491C9342F0D30020D1
:1056B00030BD0000AA1D002010B50549054801F0C5
:1056C00015FA0348044A0821083001F0D5FB10BD43
:1056D000FC1D0020FFFF0000141C0020F0B585B069
:1056E0000E46054614216846FFF71BF904200543C2
:1056F000A806800F01D0302005436F46280A787035
:1057000003243946BD70E80702D0F078C87004243D
:10571000A80702D530793855641C680716D5254886
:10572000407A002806D0A80501D5307D00E0707AC7
:10573000502105E0A80501D5307D00E0707A642194
:1057400048436421FFF784FD3855641C280702D5BF
:10575000B07A3855641CE80606D5F088000A38553A
:10576000B079641C3855641CA80603D5307A3855C6
:10577000641CE4B2680603D5F07B3855641CE4B2BF
:10578000280603D5307C3855641CE4B2E80503D5FF
:10579000B07C3855641CE4B2A80503D5707D38553B
:1057A000641CE4B26846047007F0C0FB00F05CF9CA
:1057B00005B0F0BD541D0020FEB59A4C0A25E07AD4
:1057C000092701280DD003281BD1607B2026030068
:1057D000FFF744FD0B7B828D9EA9BAC6D8E3FCFB84
:1057E0007B00607B0300FFF739FD120A0D141F25B3
:1057F0002B30353A4045494F555B6167F20A03F05B
:10580000FFFDFEBD08F0B0FC182009F031FB0220BE
:105810000EE0002009F02CFB03200FE0012189039A
:10582000E07DFFF721FDFEBD182009F077FA042086
:105830006073E7E0002009F071FA0520607312E060
:10584000182009F01FFA0620F2E7002009F01AFAE2
:105850000720F3E7182009F02BFA0820E8E70020DA
:1058600009F026FA67730A22D8E7182009F01CFB12
:105870006573C7E0002009F017FBFEBD642100201E
:1058800003F028FE0C2023E06421782003F022FEA0
:105890000D201DE06421F02003F01CFE0E2017E017
:1058A00064214B2003F006FE0F2011E064214B2001
:1058B00003F000FE10200BE05BA003C800900191F4
:1058C000684607F033FB112002E003F073FD01206E
:1058D0007D2260731201A1E708F046FC64210020DC
:1058E00003F0F8FD02206073208B60838AE07D2244
:1058F0000121D2008903E07DFFF7B6FC608B002810
:105900005AD0401E0004000C608355D1032037E0BC
:1059100047A20221142001F01CFD6421782003F02D
:10592000D9FD04201AE07D220121D2008903E07D07
:10593000FFF79AFC608B00283ED0401E0004000C4C
:10594000608339D105201BE03AA20221142001F026
:1059500000FD6421F02003F0BDFD0620607346E0E9
:105960007D220121D2008903E07DFFF77DFC608B61
:10597000002821D0401E0004000C60831CD10720A9
:105980006073FEBD2CA20221142001F0E2FC642110
:105990004B2003F08FFD0820E0E77D220121D2009B
:1059A0008903E07DFFF760FC608B002804D0401E77
:1059B0000004000C60830ED080B2FFF768FA024644
:1059C000002302212420009602E01EE005E026E0EC
:1059D00003F0E6FBFEBD6773FEBD18A20221142092
:1059E00001F0B7FC6421202003F064FD6573208B77
:1059F0006083FFF74CFA0246002302212420009620
:105A000003F0CEFB7D22D20008E7608B002804D093
:105A1000401E0004000C608301D080B2E9E7002042
:105A200001F024FB541D00200500030000000000CD
:105A3000473A0000423A0000433A0000573A00005B
:105A40000148007A70470000541D00200248C079C8
:105A5000002800D001207047541D00200148407AE2
:105A600070470000541D002000B585B01421684621
:105A7000FEF757FF10486A46C178117001795170DE
:105A8000417A9170817AD170C1881171090A51717E
:105A9000017A9171C17BD171017C1172807C50724D
:105AA0000A21032001F010FD002802D0002005B0DB
:105AB00000BD0120FBE700008C240020FEB5044659
:105AC00040780026884F002870D039460025497854
:105AD000012806D002281ED0032868D0042867D0E9
:105AE000FFE0032901D30AF093F8022078707E4882
:105AF0000AF08AF9E07878727B480AF0D1F92079C7
:105B0000002804D0B872082577480AF08FFA0120DF
:105B1000F8703E7167E0032901D30AF079F8724802
:105B2000E17841720AF0BCF9E179642957D8A0798B
:105B3000012801D90020FEBD6B48407800280FD015
:105B4000694A01280CD05670E07910726079D080D3
:105B5000A179302509020843D08007F0ADF837E07D
:105B6000A77963793F021F435F4B0022DB88302512
:105B700094469F4201D001239C465B4F3B7A994259
:105B800000D001226346002B13D039726179F9806D
:105B9000A27912021143F980002803D002F0E6FD39
:105BA0007E7015E050480AF065FB18E091E020E0B7
:105BB0003EE0002A13D039726179F980A27912028D
:105BC0001143F980012807D002F0D0FD0120787040
:105BD00045480AF019F902E043480AF0C3FB42497C
:105BE0000220C8700E71072028433F49FFF776FD59
:105BF00077E0E07878723C480AF052F97978F87AE0
:105C0000032903D1A178401C81426AD003257D700D
:105C100035480AF0F9F8A078F8723871002801D0F8
:105C2000401EF87230480AF04DFBFD700720DCE79B
:105C3000E07878722C480AF033F92079FF280AD0EE
:105C4000B87202207870082527480AF0DDF8264847
:105C50000AF0ECF9BE77E379FF2B23D0387A3021B4
:105C60000D433B726179F980A27912021143F980E8
:105C7000834202D00120787002E0814200D07E7021
:105C800019480AF0C1F87878002802D0012804D019
:105C900006E015480AF0EEFA02E013480AF062FB4B
:105CA0000120B877402005438020217A0543F9730D
:105CB000FF22607A013238741543A27A7A827976AB
:105CC000B876FA760420F87007203E71284306491A
:105CD0008CE7FE7005A003C800900191684607F0AC
:105CE00025F90120FEBD00008C24002005000300E2
:105CF00000000000FEB5254C002525702572657258
:105D0000E572234809F0CAF87F202249C0050860DF
:105D100000F030FE012105224903E07DFFF7A4FADF
:105D20001D4E6946304600F0C3FB684600780128E6
:105D300006D1684605706A460121304600F0F4FC41
:105D40001021E07DFFF796FA1448C57014A003C82F
:105D50000190029101A807F0E9F809F059FFE079F4
:105D600000280CD006F0A8FFFF210131E07DFFF7ED
:105D700081FA01214902E07DFFF77CFAFEBD07F0C0
:105D800031F8657008F08AFBEEE70000541D002032
:105D900000002041A01D0020050300008C240020ED
:105DA0000500030000000000F8B502F04FFA09F00A
:105DB00017FF464E464C012737706946204600F0D3
:105DC00077FB68460078002806D1684607706A4667
:105DD0000121204600F0A8FC7078002802D17770DD
:105DE00008F09EFA06F068FF384637720AF046F867
:105DF0007D22D2001021F07DFFF736FAF0790025E0
:105E000001281ED0334A0121F07DFFF72DFA08F05A
:105E100045FB2F4AFF21EE320131F07DFFF724FAD6
:105E20002D494878042800D34D7048780024022278
:105E3000002811D001280FD0022810D0032812D03A
:105E400017E0234A0121DD32F07DFFF70DFA1F48EC
:105E5000203005804580DCE73024CA7001E008244A
:105E6000CF700D7105E00320C870C87A4024401C33
:105E7000087100211A2005F0D7FB00211B2005F036
:105E8000D3FB154809F0C0FF06F0B8FEC10716D0D5
:105E9000810714D5C1060AD535747574B574F574C7
:105EA0003573F77275731E20B073F07304E000074A
:105EB00004D50320F0727573FFF77EFCF8BD072050
:105EC00020430549FFF70AFCF8BD0000541D0020DF
:105ED00005030000CA0700008C240020FEB506F070
:105EE0008DFE7D2742066021FF000125D04E002A4D
:105EF00009DA82061AD588430446F079022829D0A7
:105F000008F098FE26E0820610D588430446F07912
:105F100001281FD0F571307800281ED13A460121A2
:105F2000F07DFFF7A1F909F077FA13E08843044602
:105F30000B2005F035FB00280CD0F079002809D0A3
:105F400009F0FEFA3078002807D10A220121F07DFD
:105F5000FFF78AF9307800280AD00121F07DFFF799
:105F60008FF9002804D13A460121F07DFFF77CF932
:105F7000F07A0027002875D0E1070CD0B078401CDB
:105F8000C0B2B070322803D9B770002001F06EF8AB
:105F9000401CB07068E0B178002964D0012802D0BC
:105FA000022842D05CE0707B002859D1307C717CA3
:105FB0000840B17C0840F17C084251D002F04CF915
:105FC000009009F007FE04469A4900984018FA2804
:105FD000707D09D3002802D1032003F0C5F8022008
:105FE00003F0C2F8757505E0002803D0032003F024
:105FF000BBF877756000000E0FD08F488F492018CE
:1060000088420AD3707D002802D1032003F0ACF847
:10601000012003F0A9F8757522E0707D00281FD1DA
:106020000B207073FFF7C8FB1AE0082200215020F4
:1060300001F05EF9307C717C0840B17C0840F17C55
:1060400008420DD009220021502001F051F97CA016
:1060500003C8019100900621684606F089F835755D
:10606000B770FEBD75E0B770707B00283FD1200788
:106070000DD5B07B32280AD2401CC2B2B2730221C5
:10608000642001F035F9B07B282800D93574E0068A
:106090000DD5B07B0A280AD9401EC2B2B2730221C4
:1060A000642001F025F9B07B142800D27574A00794
:1060B0000DD5F07B32280AD2401CC2B2F273042103
:1060C000642001F015F9F07B282800D9B574600729
:1060D0000DD5F07B0A280AD9401EC2B2F273042102
:1060E000642001F005F9F07B142800D2F574F07AF1
:1060F00003287DD1707B022813D30A200442524921
:106100005248534B05D0328B8A4200D2D01830838C
:1061100007E01422144204D0328B824200D9D11AF3
:106120003183308B7083FEF7B2FE02462020009050
:1061300000230221242003F033F8002C91D0E00743
:1061400001D0142200E096220421F07DFFF78CF8A4
:1061500087E7E0070ED0B078411CB170322818D91B
:10616000B7703078002802D0FFF7C4FD79E7FFF759
:106170001BFE76E7B07D00280BD168460780B0781B
:10618000002805D03078002802D0684606F06EFC62
:10619000B7703078002838D0B07D002835D16846F7
:1061A0000780A007F07833D5411CC9B2F1701428DC
:1061B00004D9C80702D0684606F090FB6007307922
:1061C0002AD5411CC9B23171142804D9C80702D09C
:1061D000684606F06DFB2007707921D5411C71716E
:1061E000142804D914207071684606F0E5FB00E01D
:1061F0000BE0E006B07917D5411CB171142804D921
:106200001420B071684606F07FFB002C99D128E776
:106210000028F770CFD1D1E700283771D8D1DAE75D
:1062200000287771E0D1E2E70028B771EAD1ECE706
:10623000541D0020CAEFFFFF000090BE0100B00017
:1062400002800102C00A0000983A000058020000D3
:10625000B004000010B5034A1321034800F00CFEFF
:1062600010BD00003C1C0020981E0020F0B5114D10
:106270008C46114EA9787488059F00290DD0002FF7
:1062800000D06F70641CA1B27180914204D30021D0
:10629000A9700178491C0170F0BD002B00D06B7013
:1062A000002C04D0641EA0B270806045F4D8012098
:1062B000A870F0BD901D0020D4240020FFB595B03B
:1062C0000025109510AA119500F098F806460A28A6
:1062D0007CD204460620444320462030C0B26A46A1
:1062E0000E2107F0C5F9002802D168468089C5B2A1
:1062F00017981390404818990078022813D000206E
:106300001290082911D020462130C7B21C2200214A
:106310006846FEF7BBFF6A461C21384607F0A8F91D
:10632000002805D010E00120EAE720462230ECE703
:106330006846807EC01F092806D8E907C90F6A464B
:10634000129B1398FEF7A8FF1422002107A8FEF75E
:106350009DFF20462430C0B207AA102107F088F91B
:10636000002812D11022FF2107A8FEF79BFF00286A
:106370000BD12534E0B20BAA042107F079F9E90723
:10638000C90F07AA1798FEF793FF7036F0B20CAA50
:10639000102107F06DF9002811D10CA803F039FC89
:1063A00000240CAEA00080190188002903D0827857
:1063B000179800F0BDFD641CE4B2042CF2D3A807CA
:1063C00004D50D48017B179800F0A0FD189804280B
:1063D0000FD10949087802280BD10A791798002AA9
:1063E00000D001224978002900D004211143FEF792
:1063F00065FF002019B0F0BDB0200020F0B50A24E0
:1064000085B015460F46002806D0012804D0022882
:1064100010D0032846D11FE0084603F0C7FB04460E
:106420000A283FD2002D3DD0062239462846FEF7E5
:106430004BFF37E01D4E00240E20604380190622DA
:106440003946801DFEF746FF002823D1641CE4B2C4
:106450000A2CF1D30A241DE00024204606214843DB
:106460002330C0B26A46102107F002F900280CD18F
:106470001022FF216846FEF715FF002805D1394696
:106480006846FEF72DFF002804D0641CE4B20A2CF5
:10649000E3D3DFE70A2C05D2002D03D0294620469E
:1064A00003F09CFB204605B0F0BD00003A2D002013
:1064B00070B50C460146032000020A1A0025344834
:1064C0001300FEF7CBFE1D1012151C1F2326282CCF
:1064D000303234383A3C3E40424446484A4E5052AC
:1064E0005A5456585A00C07911E01022294902E046
:1064F0002849102210312046FEF7E6FE45E0C06A2A
:10650000206042E0224906223C31F4E70078207006
:106510003BE0808936E01E4942784231EBE71D4975
:1065200082781F39E7E7007AF1E7407AEFE7184908
:1065300006223031DFE7807AE9E7C07AE7E7C089F1
:1065400020E0808A1EE0C0781CE0C08A1AE0008B40
:1065500018E0408B16E0808B14E00D49062236319E
:10656000C9E7C08B0EE0008C0CE0408C0AE080791B
:10657000CDE7008A06E0408A04E0272904D20846D5
:10658000FEF7B4FE208000E00225284670BD000022
:106590004C200020092D002070B50E4C00256071A4
:1065A000A571691EE181FEF7A7FE0420E0711022AB
:1065B00000210948FEF76AFE07481022002110302A
:1065C000FEF764FEE562257265720720A072E5722F
:1065D00070BD00004C200020092D0020FEB53B4D71
:1065E0000C4608040CD56879FEF78CFE050004D033
:1065F00003F018FC2846FEF78BFE0120C00360E084
:10660000600403D5012080034840FEBD2F48E10708
:106610000126807900292AD02978002920D0052850
:1066200021D0287A69460870687A4870274900A8FE
:10663000062230310230FEF747FEA87A694608721A
:10664000E87A48726879FEF769FE002808D00720CA
:10665000A871696A002903D00968002900D0884719
:1066600020467040FEBD032069460870E5E7A1079B
:106670000DD5052809D1E889FEF756FEAA8A002A19
:1066800003D002216879FEF7EFFD022019E06007D0
:1066900004D5002003F01EFC042012E0200712D5D0
:1066A0002879012802D002280AD107E00096AB8B96
:1066B0006A8B298BE88A00F00BF801E000F05AF9A8
:1066C00008206040FEBD0020FEBD00004C200020E0
:1066D000F8B5134C069DA679052E01D01420F8BDFF
:1066E000104F861FBE4219D2062917D3BE1DB142D4
:1066F00014D2FF27F537BA4210D20A2B0ED3B34279
:106700000CD2E08221836283A383284603F0E2FB5C
:1067100004216079FEF7AEFD0020F8BD1820F8BD19
:106720004C2000207A0C0000F7B50C4680490098F8
:10673000164642187F4F00257879B9791300FEF785
:106740008DFD190E141BE92040455970777E888F06
:10675000E996A2A9B4BFC8E9E9E9E9D3E900102C98
:1067600076D11022314674486FE0102C70D17248F7
:1067700010223146103068E0042C69D13068F8628C
:10678000CEE0012C64D13B7832783A70002B0AD0ED
:10679000002A07D1022903D0062901D0042901D1FA
:1067A000FEF7C8FDBCE0002A0AD0012905D0032964
:1067B00003D0052901D0042902D10121FEF7C0FD33
:1067C000AEE0022C44D13088B881A9E01F2C3FD81C
:1067D00058481F2200214230FEF758FD55482246F6
:1067E00031464230FEF770FD524B7C7042332246F8
:1067F000012112E01F2C7CD84F481F2200211F3896
:10680000FEF744FD4C48224631461F38FEF75CFD3A
:10681000494BBC701F3B224600217879FEF796FD5C
:1068200083E0012C65D13078042862D8387277E093
:10683000012C5ED1307803285BD8787270E0062C8A
:1068400057D13C48062231463030FEF73DFD67E027
:106850004FE0012C4DD1307807284AD8B8725FE05C
:10686000012C46D13078032843D8F87258E0022C26
:106870003FD13288BA82002A52D0052950D1022154
:10688000FEF7F2FC4CE0012C33D13078012830D8EF
:10689000F87045E03088022C2BD1062829D3192125
:1068A000C901884225D8F8823AE03088022C20D1EC
:1068B00006281ED31921C90188421AD838832FE02F
:1068C0003088022C15D1FF21F531884211D278830E
:1068D00026E03088022C0CD10A280AD31921C901DC
:1068E000884206D8B8831BE03178012C01D10129F8
:1068F00001D0182514E00821FEF7C2FC002801D0C1
:1069000016250DE0002003F0E5FA04217879FEF762
:10691000B1FC05E00098272801D2022C02D0022504
:106920002846FEBD3188FEF717FD0546F8E7000052
:10693000FFFCFFFF4C200020092D00201CB50B4C54
:10694000A179002901D011201CBD002800D060626F
:10695000064907482C31034601910090103B002264
:10696000E179607900F016F800201CBD4C20002071
:10697000192D002010B506488179052901D0122073
:1069800010BDC18913224079FEF7ECFC10BD000058
:106990004C200020F8B51D460224069F079E0B00E0
:1069A000FEF75CFC0A15080606081506150606150E
:1069B000002C0CD1FEF7DCFC040008D1324639462D
:1069C0002846FEF7DBFCFEF7DFFCFEF7E3FC204683
:1069D000F8BD08B500206946009005204A1C08F063
:1069E00001FE6846407800090300FEF737FC0906FF
:1069F000080A060C0E1114170600502008BD2020AE
:106A000008BD282008BDA02008BDFF20913008BD8A
:106A10001920400108BD1920800108BD1920C001BE
:106A200008BD08B500206946009005204A1C08F002
:106A3000D9FD684640780007000F0300FEF70EFC02
:106A40000A06080A060C0F1215181B06A02008BD1E
:106A5000302008BD502008BDFF20413008BD19205E
:106A6000400108BD1920800108BD1920C00108BDE2
:106A70001920000208BD7D20C00108BD10B500230B
:106A800009E01C012418E468944202D11901081895
:106A900010BD5B1C9BB28B42F3D3002010BD0000E5
:106AA00070B50F4D0F4CA87029461431204600F0E8
:106AB0001DF8002128460B460C30CA0084521218DB
:106AC000491C09065360090EF7D0012003F01EFE91
:106AD000A878FEF765FC0448FEF768FC70BD00006E
:106AE000D4200020FFFF00009D9FFF1F70B50A4CBF
:106AF0000025A04209D1002082008C525218401C6F
:106B0000C0B295700228F7D370BD03F016FA0028C2
:106B1000FAD00480857070BDFFFF0000F8B50E4606
:106B20000746069900240798002902D00B24204626
:106B3000F8BD022B01D00D24F9E71178527812022A
:106B400089188DB22946814301D08024EFE7384669
:106B5000F16800F089F9A842E9D02A463846F16880
:106B600000F014FA0400E2D171892A46384600F098
:106B7000B1F9DCE7FFB50025C1B02E464198B10060
:106B80000C1821881E48814232D0A07800282FD0CE
:106B9000429A4A994498FFF771FF070028D0194894
:106BA00003A900780231C01EC0B2029000220091F9
:106BB0004498019242894B1C2088394600F040F8E5
:106BC000002815D1788969468881A078C00705D04A
:106BD000208803A9439AFEF7EFFB0543A0788007BE
:106BE00006D5208803A94B9B439AFEF7EBFB054390
:106BF000761CF6B2022EC1D3284645B0F0BD000087
:106C0000FFFF0000EC10FF1F70B50C46080412D502
:106C10000A488078FEF776FB050008D02878B0286F
:106C200002D1284603F0A4FA2846FEF771FB0120A2
:106C3000C003604070BD002070BD0000D420002063
:106C4000FFB583B0087A00250C9E1C460F46C0068F
:106C50000DD5059803F06AF9030006D00A223946DB
:106C600003989847050035D101E00E2532E03878C9
:106C700002281DD17868292201784078120200028A
:106C8000081881B2881A91427ED009DC7348081A2C
:106C900023D0012821D002284FD0032808D125E095
:106CA000012872D0022871D003286DD004286ED03C
:106CB000059803F063F900286AD00568002DD4D048
:106CC0000E990D980191009033462246394603985B
:106CD000A8470546284607B0F0BD0D98002872D198
:106CE000F868017831700278416896E00D980028C4
:106CF00069D101203070F86800210078207078890F
:106D0000401C80B2FEF764FB00280DD03178027879
:106D10008918891C3170817A61704189090AA170D2
:106D200002784168E01C79E030780422001D307060
:106D30000021601CFEF7AAFACCE70D98002875D157
:106D4000F86802A900880090042030700098207034
:106D50000098000A60700098FEF73AFB070029D0FF
:106D6000F86800906846028901AB3D493846FEF755
:106D700035FB002810D13B7802213A487A68FEF7AB
:106D800033FB002808D104E026E030E01CE04AE0B4
:106D900062E03348694688800098007802280CD168
:106DA000009802224168201DFEF78EFA3078801C80
:106DB000307002E069460098888068468088A0703C
:106DC000000AE07086E731E00D9800282ED1F968BE
:106DD000039800F049F804E00D98002826D1F868DF
:106DE0000088022131702070000A607072E7F86834
:106DF000FEF700FB0D99C0B2814212D8814201D149
:106E0000002206E00E9A8918814202D30D99401A99
:106E1000C2B23270F9680D9809182046FEF754FA8C
:106E200058E7072556E70D98002801D00B2551E7B4
:106E30000721F8683170017821704178617081789C
:106E4000A1704188090AE17001792171817961712C
:106E5000C088000AA0713DE700252FE70028000048
:106E6000FFFF00001E7C010010B503F066F800284B
:106E700000D0807810BD00007CB51546040019D004
:106E8000684601940180FEF7BBFA03001DD1002D76
:106E90001BD06489002C0DD00C20FEF7B7FA002817
:106EA0000AD0002303608480094A85605168002964
:106EB00004D006E0022308E0132306E0506004E05B
:106EC00011460A68002AFBD1086018467CBD000004
:106ED000D4200020F8B50C4C0746207815460E4605
:106EE000FF280FD00A20FEF797FA01000AD0B12040
:106EF00008700020487008714F80CE800D81207886
:106F0000FEF790FAF8BD0000D420002070B50C46C2
:106F100005460649FFF7A8FF800704D52146284605
:106F2000FEF786FA70BD012070BD0000E820002049
:106F30001CB56B461A71120A5A7100220092022384
:106F400001AA00F001F81CBDFFB583B008461F463A
:106F500001A90C9EFEF73CFA050014D06846808813
:106F600003F00CF800280AD04468002C09D00096E1
:106F70003B462946059A0398A04707B0F0BD002478
:106F8000F3E70E20F9E70120F7E7000070B514469B
:106F90000E46054602F0D1FF002806D131460548CD
:106FA00002F0CBFF002803D005808470002070BD64
:106FB000112070BDFFFF0000014610B50020C90779
:106FC00004D0034A07210348FFF756FF10BD000015
:106FD000501C0020D81F002070B50D461646002416
:106FE0001D490300FEF73AF908051234341934221A
:106FF0002934152D23D8162200211848FEF746F90A
:107000002A4631461548FEF75FF922E0022D16D1D7
:1070100011491088103908801BE0082D0FD10E4847
:10702000082231460838FDF763FC12E0012D06D135
:10703000CA6909493078283107E0012D01D01824A8
:1070400007E0CA6B04493078483103F010FD00E0D6
:107050000224204670BD0000D81F0020D42C002040
:107060000148007870470000201D0020002801D052
:1070700008F086FA0021132004F0D6FAFEE700009B
:10708000F8B5454F0A4639788446092948D00A2977
:1070900046D00B2944D00C2942D00D2940D03F4C7A
:1070A000607A002801D001281AD12078002801D068
:1070B000012815D165893A482B1F834210D2A38934
:1070C0001E1F86420CD2AB420AD8002A01D0012AE8
:1070D00006D16046334B344D00282DD0012801D015
:1070E0001220F8BD207A01281AD025200126002977
:1070F00004D007290AD0082908D011E0E671E2730C
:10710000A07405203870FEF799F913E06A68928D33
:10711000520605D51A78002A04D024A000F0B2FA4D
:107120002120F8BDA07427481E70012109030078B2
:10713000FEF706F926722CE072B60026052904D067
:10714000072907D0082905D005E03E701E20FEF76C
:107150007BF900E01E7026725820FEF77BF962B6BC
:10716000FEF77EF9184E194CA8600FE0FEF778F98B
:10717000A968884201D3401A01E0711A0818E86032
:107180007D226969D2005143814202D320680128DF
:10719000ECD00020F8BD00001D12FF1F421DFF1F94
:1071A000FD3F00002312FF1F802300205B4C4C5F3B
:1071B0004442475D202530325820253032580A0D90
:1071C000000000001C12FF1F40420F005812FF1F5A
:1071D00010B50446B031C8B209F044F920091030A6
:1071E00009F040F92007000F0121084309F03AF99E
:1071F00010BD0000F8B515460E460746FFF7E8FF3C
:107200000C49002468014518285D09F045F9641C03
:10721000E4B2102CF8D3761CF1B23846FFF7D8FF51
:1072200000242819007C09F037F9641CE4B2102C02
:10723000F7D3F8BD890B0020F7B5203A0098002459
:107240000F46D5B27F2803D900208F1CFFB20090D3
:107250003946FFF7BDFF0D4E2D012819305C09F0AE
:107260001BF9641CE4B2082CF7D37F1CF9B2009818
:10727000FFF7AEFF002428198019007A09F00CF9F5
:10728000641CE4B2082CF6D3FEBD0000D905002032
:10729000F7B507460026029803F064FB0546002474
:1072A00022E0281B401EC1B20A2006F093F90146D5
:1072B0000298FDF7CDFF0A21FDF7CAFF0A46002E0E
:1072C00005D1681E844202DA002A04D0012620017A
:1072D000C019C0B203E02001C019C0B22022019938
:1072E000FFF788FF641CE4B2AC42DAD32846FEBD47
:1072F000F7B507460026029803F034FB0546002444
:1073000023E0281B401EC1B20A2006F063F90146A3
:107310000298FDF79DFF0A21FDF79AFF002E05D187
:10732000681E844202DA002906D001263031E000CE
:10733000C019CAB2C0B203E0E000C019C0B2202236
:107340000199FFF779FF641CE4B2AC42D9D3284617
:10735000FEBDF8B517460E46044600250CE0314642
:107360002046FFF769FF0834E4B2782C02D90024E4
:10737000B61CF6B26D1CEDB27A5D002AEFD1F8BDF5
:10738000F8B50446002003460A5C8507ED0EAA40C6
:107390001343401C0428F7DB01F014F90028FBD14B
:1073A00001F0F8FF21022004090E0843FF273F02E5
:1073B00021463940084372B600211A4DA960194E82
:1073C0000002803E801C3060336062B601F0FAF843
:1073D0000028FBD101F0B8FE1120000620186946F4
:1073E0002A695207FCD572B60422AA60040202047C
:1073F000240E2243384002431002C01C306062B6A3
:1074000028694007FCD530780870307848703078AB
:1074100088703078C8700098984201D00020F8BD7C
:107420000120F8BD8000081170B505460024094907
:107430000948FFF75BFB0948FDF7B8FFE80706D0EE
:107440000448074A15210830FFF716FD0446204678
:1074500070BD0000C4210020FFFF00009DEFFF1F52
:10746000C01C002010B50B4600240E49002806D091
:10747000022809D005280FD00224204610BD4888D4
:1074800010700246084903E0C88810700749024698
:107490001846FDF719FFF0E7888910700246044985
:1074A000F6E70000A8210020B8300020B834002002
:1074B000B83A0020002803D0024908610020704734
:1074C00011207047A8210020FEB517460246012072
:1074D00000244002814201D91820FEBD2148FF2529
:1074E00015261300FDF7BAFE060409101524293AE3
:1074F00041800A4639461C4803E081800A463946E5
:107500001A48FDF7E1FE2AE0C1800A4639461848CC
:10751000F7E701810A4639461648FDF7D5FE114BBB
:10752000002224331846134910380096019512E0C2
:1075300041810A4639461048E3E781810A463946C7
:107540000E48FDF7C1FE074B0022243318460B49B5
:10755000083800960195FFF70DFB00E00224204655
:10756000FEBD0000A8210020B8300020B832002065
:10757000B8340020B8360020B8380020B83A0020CF
:10758000024901480860704740787D017C23002053
:1075900030B587B00446412801D0422C23D11821B0
:1075A0006846FDF7BEF9FF2217216846FDF7B2F9DC
:1075B00000256846412C02D0422C05D00CE0122553
:1075C00004702A460A4904E01225094904702A4633
:1075D0001231401CFDF78CF96A4629460520FFF759
:1075E00073FF002802D0002007B030BD0120FBE768
:1075F0009205002010B57D21C003C900FDF728FECB
:1076000000F002F810BD0000F8B506460027FDF7AF
:107610002DFF04460648051B06E0FDF727FFA042A4
:1076200001D3071B00E02F18B742F6D3F8BD0000C6
:10763000FFFFFF0010B5044604F0D8FA02460648E2
:10764000831A04F0D3FA904201D3801A00E018188C
:10765000A042F6D910BD000040420F00CB077622B1
:107660000748002B02D0C260012004E0CB0504D5FE
:10767000C260FF2001304840704700207047000082
:10768000002000400FB410B503A9044B044A02982F
:1076900000F0D2F810BC08BC04B01847459BFF1F8F
:1076A000A02300200FB410B504A9074B02AA039829
:1076B00000F0C2F8044602A9002000F0F7FA2046C4
:1076C00010BC08BC04B01847AD7CFF1F2021020C81
:1076D00001D010211046020A01D0104608390209D3
:1076E00001D01046091F820801D01046891E4208A9
:1076F00001D0881E7047081A70470000002805DB7B
:10770000C106C90E01208840014908607047000089
:1077100000E100E08307FF22DB0E9A408907090E93
:107720009940002808DB830809489B001818036863
:1077300093430B43036070470007000F083883082A
:1077400004489B001818C36993430B43C3617047F7
:1077500000E400E000ED00E08307FF22DB0E9A402A
:107760008907090E9940002808DB830809489B0017
:107770001818036893430B43036070470007000F1A
:107780000838830804489B001818C36993430B43C7
:10779000C361704700E400E000ED00E08307FF22D2
:1077A000DB0E9A408907090E9940002808DB830800
:1077B00009489B001818036893430B430360704704
:1077C0000007000F0838830804489B001818C36995
:1077D00093430B43C361704700E400E000ED00E019
:1077E000BFF34F8F04490348C860BFF34F8F00BFFA
:1077F000FDE700000400FA0500ED00E0BFF34F8F45
:1078000004490348C860BFF34F8F00BFFDE7000085
:107810000400FA0500ED00E002E008C8121F08C1EC
:10782000002AFAD170477047002001E001C1121F01
:10783000002AFBD170470000FFB591B00F46054606
:10784000002606E025280AD0149A139990476D1C4B
:10785000761C28780028F5D1304615B0F0BD0024FC
:1078600000940121F34A029400E004436D1C2B783C
:107870000846203B98401042F7D128782A280ED09D
:10788000022128780246303A092A15D8009A0A239C
:107890005A43303A80180C436D1C0090F1E701CF39
:1078A0000090002805DA012040030443009840427C
:1078B0000090022004436D1C28782E2815D1042046
:1078C000044368786D1C2A280AD101CF6D1C0290F0
:1078D0000BE002990A225143303940186D1C029086
:1078E0002878014630390929F3D928786C2810D036
:1078F00006DC4C281AD068280ED06A2817D104E07C
:10790000742813D07A2812D110E0012040050443D6
:107910000CE00121090501E0032109050C43697808
:10792000814203D10120000524186D1C6D1C2878AC
:1079300003906E281ED00CDC632831D004DC0028B4
:107940008AD0582811D1B2E064287BD069280CD1A4
:1079500078E073282DD004DC6F2870D0702804D113
:10796000A7E075286CD078286BD0149A13999047AB
:10797000761C62E06002400F022807D003280AD07C
:10798000042838680AD006603F1D56E03868F117B1
:1079900006604160F8E738680680F5E70670F3E7AF
:1079A0003878694608740020487404A803900120C0
:1079B00003E0386803900020C0433F1D61070FD5E6
:1079C000002101E00199491C029A0191914213DAC8
:1079D0008142F7DB019A0399895C0029F2D10BE01F
:1079E000002101E00199491C01918142FADB019AD1
:1079F0000399895C0029F5D101990098139A401ADE
:107A000000902146149B00F03BF90199801946181B
:107A100007E0039803990078491C0391149A13997D
:107A200090470198401E0190401CF2D12146149BC2
:107A3000139A009800F014F986196D1C09E741E0CB
:107A400033E034E00A200021049005916002410FE8
:107A5000022905D001CFC2179446032905D007E0BB
:107A6000FF1DFF08FF0003CF06E000B2C2179446D7
:107A7000042902D140B2C1178C46002261469445C8
:107A800006DA0A460021404291418C462D2102E04F
:107A9000210504D52B216A461176012103E0E10777
:107AA00001D02021F7E7019154E00A200BE01020DB
:107AB00009E01020049000210420044308200591CF
:107AC000029003E008200021059104906002410F1C
:107AD000022905D001CF00229446032906D006E0F2
:107AE000FF1DFF08FF0003CF8C4603E080B204298E
:107AF00000D1C0B20021019121072BD50399702933
:107B000006D0049A1021059B4A401A4305D00EE086
:107B100040216A461176012108E06146014306D002
:107B200030216A4611760399517602210191049A17
:107B30000821059B4A401A430CD16146014301D1FB
:107B4000610707D530216A4611760121019102991A
:107B5000491E02910399582904D037A103910FA916
:107B60000F910DE039A1F9E76146059B049AFDF7F5
:107B70002DFA039B8C469B5C0F9A521E0F9213703A
:107B800061460143F0D10F9807A9081A20300390ED
:107B9000600704D5012000048443029801E001201D
:107BA00002900399884201DD401A00E0002041184C
:107BB0000290019809180098401A0090E00306D43A
:107BC0002146149B139A009800F05AF88619002059
:107BD000049008E006A9085C149A13999047049849
:107BE000401C761C049001998842F3DBE0030CD51D
:107BF0002146149B139A009800F042F8861904E07D
:107C0000149A302013999047761C0299481E0290CE
:107C10000029F5DC08E00F980F990078491C0F91B6
:107C2000149A13999047761C0399481E03900029D3
:107C3000F1DCFBE6092801003031323334353637C8
:107C400038396162636465660000000030313233A8
:107C50003435363738394142434445460000000048
:107C6000F8B5044600251E461746880404D405E0EE
:107C700039462020B0476D1C641EF9D52846F8BD52
:107C8000FFB50446002581B01E46C80301D5302744
:107C900000E02027880404D505E038460399B04762
:107CA0006D1C641EF9D5284605B0F0BD0A68531C4A
:107CB0000B6010707047000004490868FF22120230
:107CC00090430122D2031043086070471CE400E097
:107CD00010B5FDF7D1FB0120FDF7D4FBFDF7D8FB74
:107CE000002010BDF0B500248E464A1E12E07146F9
:107CF00000230D1B6D1E0AE09E0031188C4687592B
:107D000049688F4202D9815161464F605B1C9D4298
:107D1000F2D8641C9442EAD3F0BD000010B500F024
:107D200095FAFDF7CFF80022074BFCF7AFFF0022D2
:107D3000064BFDF713F80022054BFDF70FF8FDF792
:107D4000E3F8C0B210BD000000B08D400000594003
:107D500000002440F8B5069800261D461446002869
:107D600001D00B20F8BD4868012702784078000256
:107D700010181B4A80B2904202D1FFF7CFFF14E0E7
:107D8000174A521C90421DD102F0E0FD1549FCF744
:107D900043FEFDF7D7F80022134BFCF769FF0022E2
:107DA000124BFCF7DBFFFDF7AFF811490870052017
:107DB00028700878207067705420A070E770B32096
:107DC00020710BE00B4A904207D102201870024646
:107DD000C9682046FDF778FA00E00A263046F8BD6B
:107DE0001A2A000000007A440090AA4000002440B3
:107DF000F41D002008290000F0B5044685B00026D7
:107E000078480196C07901281BD10B2003F0C8FBEC
:107E1000002816D101A8216802F022FD0198FDF783
:107E200091F8714A714BFCF731FF05460F46206807
:107E3000FDF788F82A463B46FCF71AFFFDF796F84F
:107E4000206002F089FD00287ED0694D6F78032FF5
:107E50007BD268492068FCF7DFFD674D012F44D8CD
:107E6000FDF770F8064602910F462888FDF72AF8BC
:107E7000624A634BFCF70AFF32463B46FCF76EFF53
:107E800002460B4600200146FCF74EFEFDF76EF859
:107E900000906888029FFDF715F85A4A5A4BFCF784
:107EA000F5FE32463B46FCF759FF07460391009822
:107EB000FDF748F83A46039BFCF736FEFDF756F807
:107EC0000090A888029FFCF7FDFF00224F4BFCF7B3
:107ED000DDFE32463B46FCF741FF05460E46009864
:107EE000FDF730F82A4633462DE0022F39D8FDF74A
:107EF00029F8064640480F46C088FCF7E3FF414A90
:107F0000434BFCF7C3FE32463B46FCF727FF0246D5
:107F10000B4600200146FCF707FEFDF727F8054653
:107F200035480089FCF7CEFF364A394BFCF7AEFEE8
:107F300032463B46FCF712FF06460F462846FDF741
:107F400001F832463B4601E00BE005E0FCF7ECFDB2
:107F5000FDF70CF8064604E02E49032F16D0042F37
:107F600023D03046FCF7EEFF2B4A2C4BFCF78EFE5D
:107F700005460E462068FCF7E5FF2A463346FCF727
:107F8000D3FDFCF7F3FF206005B0F0BD287E032889
:107F90000ED908280CD206280AD016E0FCF776FE87
:107FA00032463B46FCF7DAFED2E7A87F00280CD029
:107FB0002068FCF731FDFCF7C5FF06460F46687ADE
:107FC000FCF780FF164A174BE8E72068FCF724FD12
:107FD000FCF7B8FF06460F46687AFCF773FF094ABC
:107FE000114BDBE7541D0020295C8FC2F528BC3FF4
:107FF0008C24002000004844F4240020AE47E17A9D
:1080000014AE14408FC2F5285C8F17400000184052
:108010005C0F23400000C8427B14AE47E17AB43FB6
:10802000ED0DBE3099EA21405C8F16407CB54C685E
:10803000154622786478069E24021219104C92B2DA
:10804000E24209D101220192DBB200962A46FEF7F4
:1080500065FD040003D000E00A2420467CBD697859
:10806000287809024018074980B249680029F4D0ED
:10807000002802D001208847EFE70220FBE700003C
:10808000FED6FFFFF41D002003B5694604480978B9
:1080900001706946498841806946898881800CBDA4
:1080A000441D002038B501681C4C012903D01CA0D8
:1080B00005F02AFC38BD19491039CA788978D206EA
:1080C000C906C90F0091D30F027B8168042003F019
:1080D000F3F8124DFF21C905083DC84209D3A9880C
:1080E0002878FDF7C7F8A98828780522FDF7BCF89D
:1080F00038BD0F49FCF790FC0021C943FCF707FD90
:108100000C49096AFCF72FFC01466060206800F00A
:1081100069F869882878FDF713F938BD4C1D0020EF
:108120000A5F5F414443206572726F720A0000006B
:10813000000040418C24002010B502F023FB134CBA
:10814000002815D01348124A01210078FDF78CF859
:108150002078411CC9B221700A2803D80EA005F06E
:10816000D3FB0EE011A005F0CFFB0120FEF77EFF50
:108170001A481B49006802F0BFFE03F005F800280A
:1081800001D0112010BD0020207010BD781D0020EE
:10819000E20300006B1D0020200A2061642062754C
:1081A00073792062256420200A000000200A205FE5
:1081B0005F5F5F5F5F5F5F5F5F616463206D6F64E0
:1081C000756C652072657365745F5F5F5F5F5F5F8D
:1081D0005F5F5F5F5F5F20200A0000003C1D0020A2
:1081E000A580FF1F10B508461149FCF715FCFCF7E8
:1081F00077FE80B20F4C10496080884201D964201C
:1082000003E00E49884202D20020207010BDFCF726
:1082100059FE00220A4BFCF72BFD0022094BFCF70C
:1082200035FD0022084BFCF799FDFCF76DFEECE7ED
:1082300000007A44401D0020FE100000480D0000A0
:108240000090AA400000594000B08D4001480078DD
:1082500070470000401D0020014840887047000022
:10826000401D002010B504480021016141610D202E
:1082700003F07AF9002010BD3C1D002010B5FFF777
:108280005BFF10BD10B50446042800D90424FDF797
:10829000E5FB00281AD1012C07D0022C07D0032CB3
:1082A00007D0042C07D0152406E0172404E0192475
:1082B00002E01B2400E01D24224600216020FEF77E
:1082C00099FF621C00217020FEF794FFFDF7BEFBB2
:1082D0001249002848780AD0002816D10120487099
:1082E000242200214020FEF785FF252209E00028F6
:1082F0000BD000204870014620224020FEF77AFF74
:10830000202200215020FEF775FFFDF799FB002881
:1083100002D0012007F0B2FD10BD0000791D002041
:1083200010B504000DD0642C25D02022002110208F
:10833000FEF782FF0A212046FCF78AFF3030C2B2E6
:108340001FE0202200211020FEF776FF20220021CE
:108350001820FEF771FF202200211046FEF76CFF67
:10836000202200212820FEF767FF20220021302054
:10837000FEF762FF10BD312200211020FEF75CFFE6
:10838000302200211820FEF757FF0A212046FCF773
:108390005FFF0A46303200212020FEF74DFF2322E6
:1083A00000212820FEF726FF10BD000070B59CB00C
:1083B000584D0024687018A90C73202113A8FCF7ED
:1083C000B0FA13AA1BA9032007F00CF918A913AAE5
:1083D000097B5148FEF7A8F910A90C7220210AA8C0
:1083E000FCF79FFA0AAA12A9042007F0FBF810A9CB
:1083F00061200AAA097AC000FEF796F9FEF711FB80
:10840000064601460620FCF7A7FF31460720FCF789
:10841000A3FF31460820FCF79FFF31460920FCF7F7
:108420009BFF69463C488C8307AA0221401EFEF749
:108430007BF9694638480C7606AA0121801CFEF7B4
:1084400073F9694634480C7505AA0121801EFEF7B0
:108450006BF9FEF7BEFA694688832F480A1F02218E
:108460000A30FEF761F92C4807AA02210B30FEF70B
:108470005BF9694628480C8306AA02210C30FEF7F6
:1084800053F94B20C00069468882C52005AA022105
:108490008000FEF749F90120694608740146312041
:1084A00004AA0001FEF740F906211F20FCF754FF43
:1084B00069460C77182101A8FCF733FA01AA07A92D
:1084C000022007F08FF8694601AA097F0020FEF715
:1084D00083FD641E2046FEF76FFDFDF7EDF8FDF706
:1084E000B9FE2046FEF7A0FF281DFEF7E3FF05F0CA
:1084F00077F9687808A908700120800369464884E4
:108500000999089804F06EFB01216878FCF718FFC0
:108510001CB070BD201D00200703000010B50C46E4
:1085200008040AD50E484078FCF7ECFE002801D07C
:10853000FCF7EEFE0120C0030DE0E00705D008487F
:108540000830FEF7FBF9012005E0600405D504F0D2
:10855000C3FA01208003604010BD002010BD000060
:10856000201D0020064AD088642807D2117A491CB1
:10857000C9B21172814201D390690047704700006F
:10858000D424002010B50020054CFF212218401CE7
:1085900051704028FADB05F00DFF207010BD00007F
:1085A000C854002010B50020054CFF212218401CA3
:1085B00051700628FADB05F01BFF207010BD00008B
:1085C00099230020084801694907FCD501218160F1
:1085D0000549052280390A7002695207FCD50878DE
:1085E000C007C00F7047000080000811F0B5864634
:1085F000080CFF268446002388B237461C461946DD
:1086000001228A4005461540CD402C19A4B2FF2F07
:1086100002D1012C00D18FB265462A40CA40D2183F
:1086200093B2FF2E02D1012B00D18EB2491C10292A
:10863000E6DB012C02D0102C08D009E0012B07D179
:108640003001C019714608700220F0BD102B01D016
:108650000320F0BD0120F0BDF3B5414A0E46117B69
:1086600083B08B0003981146203900685B1858606E
:10867000107B0024401CC0B2384D107323460A28DA
:1086800000D31373107C002808D1507C401CC0B26A
:108690005074052802D301201074537431480078B7
:1086A000002819D08878401CC0B288700A2810D9D8
:1086B0008B702B48A10020380F1828467968FCF7EA
:1086C0007BFC00D27D68641C0A2CF2DB03980560F9
:1086D00042E0337005B0F0BDD07B00280AD0107C9A
:1086E000002839D0002000900190107B002805D090
:1086F000401E04E00120D0733070EBE70920C0B2C7
:10870000002702900298C01B00D509300006810D99
:10871000134820380C1828466168FCF74DFC00D23D
:10872000656861680098FCF73DFC01D260680090C4
:1087300061680198FCF717F97F1CFFB20190052FC3
:10874000E0D30099FCF760F92946FCF75DF906498A
:10875000FCF79FF9039908600120CDE70000A040D5
:1087600078240020901D00200000404010B5002417
:1087700020011030C0B220220321FEF73BFD641C13
:10878000E4B2072CF4D310BD10B528210148FCF742
:10879000C8F810BD002C0020032806D3012189074A
:1087A0008B680122824093438B607047032806D375
:1087B000012189078B680122824013438B60704737
:1087C00001480068704700001010FF1F0122920747
:1087D0001368012181408B431360106808431060C7
:1087E000704700007CB5264C6A46E0751070022088
:1087F0005080012090800021132002F089FE012189
:10880000132002F0B1FE34211E48FCF78AF81D48FF
:10881000042620304673FFF725FD01990098FFF7E5
:1088200033FCE07D6A461070F00150804510958061
:1088300007F0D6F90199009807F0FCF87D22D200E4
:108840002946E07DFCF710FD6A46568001990098A4
:1088500004F0BCF900F072FD00221146272003F05D
:1088600041F903F085FFA07505F064FD207800282C
:1088700002D0FDF799FA7CBDFDF73CFA7CBD000003
:10888000541D002058240020F0B5FC4F87B00C4642
:10889000080409D5F87DFCF735FD002801D0FCF768
:1088A00037FD0120C0033FE2A0040025002816DAAE
:1088B000FEF7D6FB0126760305280AD06846057028
:1088C0006A460121EE48FDF72FFF2046704007B0B1
:1088D000F0BD05223146F87DFCF7C6FCF5E7A006A1
:1088E00003D504F0A5FA20201EE2E00701260028A7
:1088F00002D0FFF7C3FCE8E7A00773D5FFF7A6FC9B
:108900000390FFF7A9FC0290F87A002812D0032800
:1089100010D00298FCF7D6FADA4ADB4BFCF7B6F92E
:10892000FCF724FB02467620002100900223084633
:1089300000F036FCD1480178D448049007460D3F3A
:10894000002974D014210398FCF782FC694608754D
:108950000298FCF7B7FACB4ACB4BFCF797F9FCF738
:1089600005FB009069460D7101A96846FFF774FE8A
:1089700069460879002803D005A8049A06F0E4F8AF
:10898000BE4E0098F061C2497A7B8A70C14909786D
:10899000002903D06946097900290FD0BE498842D1
:1089A0000BDAB87B401CC0B2B873012806D9307806
:1089B000002803D0FDF79EF900E0BD73F07902288E
:1089C00011D0012814D0B1482D38057006F0B8FD3B
:1089D000787BFFF757FCAA4A0121DD32F07DFCF7D6
:1089E00043FCB5E0B6E00420A94978738870F0E74D
:1089F000707A002813D1A54D2D3D2878002804D188
:108A0000787B002801D0401E28702878411C2970EE
:108A1000FFF738FC2878042800D900202870984AED
:108A20000121DD32F07DFCF71FFCD4E7FFE793481E
:108A3000C079022807D0012822D094482D38017827
:108A400000296AD06AE08D4D6878002804D105F0CD
:108A500067FC04F031F96E706420FFF761FC0420BC
:108A6000FFF710FC8A48797B81700121E87DFCF7D3
:108A700001FC834A0121DD32E87DFCF70FFD57E060
:108A80007E484078002808D105F04AFC04F014F92B
:108A90007A4846707D482D38057014210398FCF7FC
:108AA000D7FB694608750298FCF70CFA754A764BB5
:108AB000FCF7ECF8FCF75AFA009069460D7101A931
:108AC0006846FFF7C9FD69460879002804D005A863
:108AD000049A06F039F8B874B87C632801D9632089
:108AE000B8746A4D2D3D2878002804D1787B002881
:108AF00001D0401E28702878411C2970FFF7C2FB66
:108B00002878042800D9002028705D4A5B48DD32AF
:108B10000121C07DFCF7A8FB0AE0057004F062F9B2
:108B2000564B5D7006F00CFD0121D87DFCF7A2FBD1
:108B30005248C07901280BD10C2002F031FD0028E9
:108B400006D00B2002F02CFD002801D106F072F8AF
:108B50000220E9E04948C079002803D047490128AC
:108B600013D021E00B2002F01BFD00281CD1434F45
:108B70000121FE71F87DFCF77DFB64220121F87D67
:108B8000FCF772FB06F048FC0EE0087800280BD0DA
:108B90000C2002F005FD002806D00B2002F000FD9D
:108BA000002801D106F046F8600703D5FDF796F9D5
:108BB0000420B9E0E00617D5304D287800280FD002
:108BC000FEF74EFA05280DD0287AFF227040287251
:108BD000F5321021E87DFCF747FB287A07F04EF9C3
:108BE0001020A1E02E72F8E7E00515D507F00CF88B
:108BF0002248FF25417A0135002902D0204AEE3271
:108C000003E00178002904D0244A2946C07DFCF7FE
:108C10002BFB204668405AE6A00578D506F0DAFF1F
:108C200007461648C07A002809D0032807D03D20FF
:108C3000009001233A460621502000F0B1FA0F4976
:108C40000878002860D01648874202DDFDF752F808
:108C50005AE0144A144897422CDD0F46497A0029FD
:108C600006D17E721149016007200949FCF736FDE3
:108C7000B87A00281CD0BD723FE00000541D0020CF
:108C800005030000FCA9F1D24D62503F852400206D
:108C90008C240020901D00209A995940DD07000087
:108CA0000000844200007042A01D0020CDCC4C3F4B
:108CB000BE7226E01E4A974218DA4A7A002A23D06A
:108CC0000F464D727F21C9050160B87A002803D094
:108CD000BD72002007F0AEFA16487D728078FFF76B
:108CE000D1FA07201349FCF7F9FC0DE0487A002877
:108CF0000AD0887A002803D08D72002002E006E0B6
:108D00008E72012007F096FA012040020CE0E00488
:108D100004D5FCF7A9FE0120000305E0600405D599
:108D2000FCF74AFD012080036040D0E50020CEE53D
:108D3000000050428C24002010B5134C0A20E17E24
:108D400041437D20C000FCF783FA10494870104869
:108D50008078C00703D0607E02280AD00BE0A07F95
:108D60000028094802D007F0CDFA10BD07F0E6F858
:108D700010BDFFF7F7FBA07F002802D006F066FFCA
:108D800010BD06F05BFF10BD8C240020901D00205C
:108D9000D424002010B50E48422101710D494161D3
:108DA0000D49816100210D4A4180D37E0C4C5B004E
:108DB0005B1E0380937EC3800172094BC360012355
:108DC000E41E237053770177FFF7B6FF10BD000054
:108DD000D4240020398DFF1FE58DFF1F8C24002037
:108DE000931D002010B500F0DFF810BD70B5204CC9
:108DF00000252146658020311E4804F025FB4320D4
:108E000020711D4860611D48A0612572194D7D21AA
:108E1000E87EC90048430A21FCF71AFA401E208068
:108E2000A87EE08016481649E0600120091F0870FE
:108E30006877207720460A212A30FBF772FD20341C
:108E4000204621880A30018061884180A188818084
:108E5000E188C180218901810AA004F055FD2389A0
:108E6000E288218809A004F04FFD00F01BF870BDD6
:108E7000D42400208C240020A58EFF1FA98FFF1F63
:108E8000941D00200A5F5F325F5F0A000A202020E5
:108E9000523A25642020433A256420204D3A256427
:108EA0000A00000070B539490120394E48703588F4
:108EB0002846FCF707F802460B4636483649FBF7CA
:108EC0004DFFFCF753F80446690870887F25ED05CF
:108ED000884211D8FBF7DBFF2146FBF79DFDFCF72D
:108EE00031F82E4A2E4BFBF71FFEFCF73FF80446E5
:108EF000A8420BDD2C4609E0401AFBF7BDFF2146D6
:108F0000FBF78AFD2946FBF783FD04462548204DE3
:108F1000807F2A35002821D02888FBF7B8FF21461A
:108F2000FBF77AFDFBF7DCFF80B205F0A1FF688854
:108F3000FBF7ADFF2146FBF76FFDFBF7D1FF80B2DA
:108F400005F0ECFEA888FBF7A2FF2146FBF764FDC5
:108F5000FBF7C6FF80B205F095FE70BDE888FBF711
:108F600096FF2146FBF758FDFBF7BAFF80B205F0EC
:108F70009FFE2889FBF78BFF2146FBF74DFDFBF792
:108F8000AFFF80B205F090FF70BD0000901D002083
:108F9000D4240020666666666666FE3FA0999999AD
:108FA0009999A93F8C24002010B5184CA07F002867
:108FB00009D0002005F05CFF002005F0AFFE002086
:108FC00005F060FE05E0002005F072FE002005F0CF
:108FD0006BFF06F0CBFA0E49002008700D490872AD
:108FE000488060772071E07F02216070002806D001
:108FF000012804D0022804D0032803D003E0E17044
:1090000001E00120E07004F047F810BD8C2400203E
:10901000901D0020D424002010B51048104C8078FA
:10902000C00705D0607E02280CD003280AD00BE0D0
:10903000A07F00280A4802D007F064F910BD06F0AE
:109040007DFF10BDFFF78EFAA07F002802D006F04A
:10905000FDFD10BD06F0F2FD10BD0000D42400207F
:109060008C24002070B5104C217F881F082802D363
:10907000FFF79AFF70BD0D48452202710C4A42610C
:109080000C4A82610023438001220280C280037265
:10909000094DC560ED1E2A70627703770748085CAA
:1090A0006870FFF7B9FF70BD8C240020D424002025
:1090B0001990FF1FE58DFF1F931D0020B21900209E
:1090C00070B54868002501784078000208181C49EE
:1090D00080B2441A884223D009DC1A49441811D0BE
:1090E000012C12D0022C15D0032C08D115E0012C34
:1090F00019D0022C1AD0032C1BD0292C1CD00A25E5
:10910000284670BD1946002001E01946062006F0E9
:1091100069FAF5E719460720F9E719460820F6E746
:1091200019460920F3E719460A20F0E719460B20F3
:10913000EDE719460C20EAE719460D20E7E70000A5
:10914000272A0000DDD5FFFF064801694907FCD545
:1091500000218160034A0421803A117001694907A6
:10916000FCD570478000081110B5002807D00128F1
:1091700006D0022808D0032801D103F09DFD10BDC0
:109180000423064A022105E003F096FD0423034A66
:109190001946121D202004F009FA10BDD105002047
:1091A000FFB5044681B01E4617461046FBF798FEF1
:1091B00082B220460299FEF79BF8C0000019C5B2A2
:1091C000002E2CD02E2228460299FEF735F80124D5
:1091D00019E021460A2004F0FDF9FBF758FE394654
:1091E000FBF71AFCFBF77CFE80B20A21FCF730F893
:1091F000E0000A464019C01E3032C0B20299FEF7A4
:109200001BF8641CE4B2B442E3D9F0004019401DDD
:109210000A9AC0B20299FEF70FF805B0F0BD2846D1
:109220000A9A0299FEF708F80835E8B22022F1E719
:1092300010B50446002006F0FDFF207800280BD072
:10924000012867D0022806D0032804D103F034FD9A
:10925000A078FFF717F810BDA078FFF713F80C22DD
:1092600006211020FDF7C6FF204606F019FE6078A3
:10927000042802D90020607001E00428EBD0000629
:10928000000E1FD001282DD002283BD00328E2D1A8
:1092900000210323284A084604F088F90E220321FE
:1092A0001020FDF7A7FFE07A0321401CC2B228205E
:1092B000FDF7A0FF204A0423921D0321382004F06B
:1092C00075F910BD1C4A00210323D21C084604F086
:1092D0006DF90A2203211020FDF78CFF204606F0CD
:1092E000C9FF10BD144A00210323D21C084604F014
:1092F0005DF90B2203211020FDF77CFF204607F0CB
:1093000031F810BD0C4A00210323D21E084604F098
:109310004DF907E00C2206211020FDF76BFF2046D7
:1093200006F0BEFD0D2203211020FDF763FF20464D
:1093300006F07CFE10BD0000C705002010B503F04C
:1093400097FC03F0E1FC11480221C170002101717A
:10935000C1800170052242726422027241702B2387
:109360008372C17201734173042383708273084A4C
:1093700002620122C273FF230374428202764276A4
:109380008376C27601774177817710BD8C240020E7
:10939000CDCCCC3D064801694907FCD50021816050
:1093A000034A0621803A117001694907FCD57047CC
:1093B0008000081170B5104C012525700020E07167
:1093C00003F02AFD65700121122002F0A1F80121AD
:1093D000122002F029F97D22D2002902E07DFBF75C
:1093E00043FF64220821E07DFBF73EFF03A2022138
:1093F0001420FDF7AEFF70BD541D0020523A00004E
:109400007CB5294E69463046FDF752F8684600782B
:109410000125002806D1684605706A4601213046BC
:10942000FDF782F9214C01A925703046FDF740F87F
:1094300068460079002806D16846057101AA012115
:109440003046FDF771F925700026E67103F0E4FC63
:1094500065700121122002F05BF80121122002F058
:10946000E3F87D22FF21D2000131E07DFBF7FCFE15
:1094700064220821E07DFBF7F7FEFEF7FFFEA07DEA
:10948000002804D0E6720A4806F0BEFC7CBD06F057
:1094900097FFA27B02216420FDF72AFFE27B0421D3
:1094A0006420FDF725FF7CBD05030000541D00204E
:1094B0008C24002010B5064A012351729072D3709B
:1094C000002111710F201146FCF708F910BD0000B2
:1094D0008C24002010B5074A5172D080642010728D
:1094E0000220D0700021117137201146FCF7F6F8E8
:1094F00010BD00008C240020F8B5304E304FF068CD
:109500003946007878708D7831464B8878795C1EC2
:1095100001220988A4B2002817D033461B880A3BD1
:10952000012824D0022828D0032830D0042833D0A2
:1095300005283BD0062807D1002D05D17480012CC9
:1095400002D8BA7000207871F8BD002D09D05B1CDC
:1095500098B2891E70808842F6DB0020B8707A715C
:10956000F8BD002B01D07480F8BDBA70F8BD009230
:10957000C805DAB2010E042304E00220DAB20523A2
:109580000A2100900E48401DFCF770FEF8BD0092C5
:10959000022332220021F5E70A2000900848022326
:1095A00008223221401D05F0B3FFF8BD0520491FF8
:1095B000CAB2032337210090E4E70000D42400203E
:1095C000901D002070B5FFF797FF1348447A002CD8
:1095D0001ED0124840880A30FBF759FC1049FBF7AF
:1095E00058FA05462046FBF752FC0E49FBF714FAE1
:1095F0000D49FBF74EFA0D49FBF7B5F90C49FBF79E
:109600000BFA2946FBF708FAFBF76AFC80B200E088
:10961000002005F04DFB70BD8C240020D4240020D8
:109620000000C8420000C04200401C460AD7233D4B
:109630000000484470B5164DFF22EC68693260891D
:109640000021401C80B26081904200D361817F2064
:10965000C005E0600F48407A00280CD0FBF717FCEB
:109660000D49FBF7D9F90D49FBF713FA0C49FBF744
:109670007AF9206100E02161204602F0FBFDE868F4
:1096800006F032FC0748C0680078687070BD0000C2
:10969000901D00208C2400200000B64200401C4693
:1096A000EC51B83DD424002010B5FFF7C3FF10BD26
:1096B000F8B5854F0122F868017884484170034667
:1096C0009E783B461C885B884179A4465D1E0A3C17
:1096D000ADB200294DD00A2301295BD002295DD00B
:1096E000032964D00520042964D0052966D0062901
:1096F0006FD0072966D0082970D0092962D00A29BD
:1097000071D00B297BD00C297DD00D296FD00E296B
:109710006ED00F296DD010296CD011296BD0122971
:109720006AD0132969D06420142967D015296FD015
:10973000664C16296DD017294BD0182974D01929D9
:1097400068D01A2967D01B2970D01C296FD01D2919
:109750006DD01E296CD01F296BD020296AD02129F9
:1097600011D1002E0FD17D80012D0CD8A2700020C8
:10977000A2E0002E08D05B1C99B27980A14202DBE6
:10978000002181704271F8BD002B01D07D80F8BDB1
:109790008270F8BD00930A23462202E00123009262
:1097A000282205214948401DFCF760FDF8BDC8226C
:1097B000262109E005234622009027E0502064235B
:1097C00000904DE002226FE04048401D03F062F837
:1097D000F8BD5BE002E006E011E014E0092001239F
:1097E0000F22009058E000930123142254E013E06C
:1097F00016E019E01FE023E027E02AE02EE00093C6
:10980000012328221AE001233C2200902821C9E7E5
:109810002DE036E03DE041E04B22D2003221D3E79B
:109820000A230092152209E001223DE03BE03DE0E1
:109830003FE040E042E00093012332221421B1E7EF
:109840000093022337222321ACE705235522009001
:1098500022E0002002235022009032E005230090F5
:109860002D223C211948401D05F052FEB0E703218E
:109870006046FBF7EDFCC1B20020E2B20A23009083
:1098800090E705232D224B210090EBE70093052361
:10989000ABE7009301231922022183E70F200A235B
:1098A000142200900DE0002200218DE728221421CF
:1098B0008AE71F2000E02020607189E700930123E0
:1098C0003C220A216EE70000D4240020901D0020D5
:1098D00070B5FFF7EDFE1348447A002C1ED01248F5
:1098E00040880A30FBF7D3FA1049FBF7D2F8054657
:1098F0002046FBF7CCFA0E49FBF78EF80D49FBF733
:10990000C8F80D49FBF72FF80C49FBF785F82946F5
:10991000FBF782F8FBF7E4FA80B200E0002005F0E4
:10992000C3FA70BD8C240020D42400200000C8425B
:109930000000C04200401C460AD7233D00004844B6
:109940000E4910B5884201D90A2010BD0C49884241
:1099500001D20C480EE00C49884201D20B4809E0C4
:109960000B49884201D20B4804E00449C91C8842D3
:1099700002D2094800F062F8002010BDFC3F000050
:10998000FF0F000000500011FF1F000000600011D9
:10999000FF2F000000700011008000110449884270
:1099A00002D90020C0437047024940180068704740
:1099B000FC3F000000500011F0B504461E480E4662
:1099C000844204D8A119814201D8A00701D00A20FD
:1099D000F0BD0023B7080CE09D002819FFF7DEFF5B
:1099E0005055010AAD186970010C000EA970E8709D
:1099F0005B1C9F42F0D89B00F01A032804D0022879
:109A00000CD0012812D015E01819FFF7C7FFD05469
:109A1000040A99184C70000C88700BE01819FFF7B5
:109A2000BDFFD054000A9918487003E01819FFF7D9
:109A3000B5FFD0540020F0BDFC3F000003460002FB
:109A4000012100B5000A490388421BD3FEF7BAFD85
:109A50000028FBD1FFF79EFC0B490020886019020B
:109A60001804090E0843FF2109020B401843064958
:109A70000002803920300860FEF7A4FD0028FBD1E9
:109A8000FFF762FB00BD0000800008110B4A08B51B
:109A9000904201D8820701D00A2008BD009105211B
:109AA000090340180002000A04226946FDF768FC19
:109AB000002801D0002008BD012008BDFC3F0000A7
:109AC000F7B505461E4882B01646854205D803996B
:109AD0006918814201D8A80702D00A2005B0F0BD5C
:109AE00003980024800800900CE0A700B819401CDF
:109AF000FAF72FFF0102F05D01437819FFF7C6FF67
:109B00000098641CA042F0D80398A400001B03280E
:109B100004D0022808D001280CD00FE0A019FAF7D1
:109B200018FF0102090A06E0A0194178007809022D
:109B3000014300E0315D6019FFF7A8FF0020CDE789
:109B4000FC3F000038B504466846047069460320AF
:109B5000ABBE204638BD000010B5002823D0124B04
:109B60000022001F196803E0814203D80A464968B1
:109B70000029F9D1002A0AD01368841A9C4204D122
:109B8000006818181060104602E0506000E018608D
:109B9000002907D002680B1A934203D10B68D21830
:109BA00002604968416010BDA423002070B50A4DD1
:109BB000064600240E206043401906223146FBF77A
:109BC00089FB002801D0204670BD641CE4B20A2C39
:109BD000F0D30A2070BD00003A2D00207FB50D465D
:109BE0000A280CD2002D0AD0062148432030C0B2EA
:109BF0006A460E2103F03CFD040003D007E002207A
:109C000004B070BD062269462846FBF75DFB20467E
:109C1000F6E700218A00835A491CDB43835212185D
:109C20009378C9B2DB4393700429F3D370470000E3
:109C3000F8B5074600200090784CB978054607260D
:109C40006079A2790B00FBF709FB0805DD1A3636AF
:109C50005E98C1DD787800285AD170480622F91C38
:109C60003C30FBF731FB0120A0716C4B01464233C5
:109C700062786079FBF76AFB002849D1C5E0797802
:109C8000002945D1F978002906D0654BA27800213A
:109C9000FBF75CFB78700AE0022A0BD00121FBF78E
:109CA000EFFA002803D101216079FBF749FB7878AE
:109CB00000282DD1F8BD7B78002B29D1032909D0AC
:109CC000A289002A0CD0217800290AD00121FBF7B3
:109CD000CBFA06E0052A01D0022012E0062010E0AF
:109CE0002570A079062802D0042802D008E00520BB
:109CF00007E00120207001466079FBF721FB84E03A
:109D00000320A07181E07878002803D0312832D078
:109D1000A6717AE041480622391D3630FBF7D4FAA5
:109D20007889E081B8892082F88960820520A07155
:109D3000A28A002A03D002216079FBF795FAB8893C
:109D4000E083F8892084388A6084E07801280AD189
:109D50001F20FBF7CBFA7D21C900484302460421AE
:109D60006079FBF781FA7A89F8780423391DFCF7CA
:109D7000A5FA257049E02570C2E72848062200218F
:109D80003630FBF783FAE583258465840421607906
:109D9000FBF770FA08216079FBF76CFAB8790828AC
:109DA00008D00320A0712078002805D06079FBF747
:109DB000C1FA07E00420F5E7012020700146607930
:109DC000FBF7BEFA0020C043E0811EE00821FBF74C
:109DD00051FA7878002800D06CE7F888E083388959
:109DE00020847889608404216079FBF749FA00288F
:109DF000F2D1A06A0028EFD00368628C218CE08B3E
:109E00009847F8BD00980028FBD0606A0028F8D079
:109E100001680029F5D0A0798847F8BD4C200020C2
:109E2000EA2C002010B50178224C912906D0A229F5
:109E300026D0D02901D1FFF7FBFE10BD41780E29B5
:109E4000FBD181881C4A91420FD1816803200856BA
:109E5000A1790529F1D17F28EFD0616A0029ECD0E2
:109E600049680029E9D0884710BD144A9142FBD1C6
:109E7000806883784278017811A003F045FD10BD19
:109E800041791329FBD10089012802D120790228C8
:109E900008D00520FBF72AFA024608216079FBF773
:109EA000E3F910BD08216079FBF7E4F9FCF762FDE6
:109EB00010BD00004C2000200514000022200000EE
:109EC0005B48434920444C455D256420256420259A
